:060000000A128A11FA2F1A
:100F3C00831203138C1EA32FA42FAC2F1A08F200BC
:100F4C00F3017208F0007308F1008C12080083168C
:100F5C0003130717871318158316031787118316A6
:100F6C000313181219309900831203139817831660
:100F7C0003138C160B178B17831203131816080008
:100F8C000A128A11AD270A128A118316031307104D
:100F9C00871083120313071087100A128A119E27D9
:100FAC000A128A11313070067104031DDE2FDF2FF7
:100FBC00E22F831203130714323070067104031DE1
:100FCC00E82FE92FEC2F8312031307103330700630
:100FDC007104031DF22FF32FF72F0230831203132A
:100FEC0087060A128A110028F001F10183010A1206
:040FFC008A11C62F61
:08400000FF3FFF3FFF3FFF3FC0
:04400E00E42FFF3F5D
:00000001FF
